:020000040800F2
:1000000000800120551A0008051A0008071A000888
:10001000091A00080B1A00080D1A00080000000059
:100020000000000000000000000000000F1A00089F
:10003000111A000800000000131A0008151A000821
:100040009D1A00089D1A00089D1A00089D1A0008B4
:100050009D1A00089D1A00089D1A00089D1A0008A4
:100060009D1A00089D1A00089D1A00089D1A000894
:100070009D1A00089D1A00089D1A00089D1A000884
:100080009D1A00089D1A00089D1A00089D1A000874
:100090009D1A00089D1A00089D1A00089D1A000864
:1000A0009D1A00089D1A00089D1A00089D1A000854
:1000B0009D1A00089D1A00089D1A00089D1A000844
:1000C0009D1A00089D1A00089D1A00089D1A000834
:1000D0009D1A00089D1A00089D1A00089D1A000824
:1000E0009D1A00089D1A00089D1A00089D1A000814
:1000F0009D1A00089D1A00089D1A00089D1A000804
:100100009D1A00089D1A00089D1A00089D1A0008F3
:100110009D1A00089D1A00089D1A00089D1A0008E3
:100120009D1A00089D1A00089D1A00089D1A0008D3
:100130009D1A00089D1A00089D1A00089D1A0008C3
:1001400000000000000000000000000000000000AF
:100150009D1A00089D1A00089D1A00089D1A0008A3
:100160009D1A00089D1A00089D1A00089D1A000893
:100170009D1A00089D1A00089D1A00089D1A000883
:040180009D1A0008BC
:1001C00010B5054C237833B9044B13B10448AFF391
:1001D00000800123237010BDD00900200000000022
:1001E000C07E000808B5034B1BB103490348AFF3B9
:1001F000008008BD00000000D4090020C07E000877
:1002000090F800F06DE9024520F007016FF0000C56
:1002100010F0070491F820F040F049804FF00004FE
:100220006FF00700D1E9002391F840F000F10800D9
:1002300082FA4CF2A4FA8CF283FA4CF3A2FA8CF311
:100240004BBBD1E9022382FA4CF200F10800A4FA78
:100250008CF283FA4CF3A2FA8CF3E3B9D1E90423CC
:1002600082FA4CF200F10800A4FA8CF283FA4CF303
:10027000A2FA8CF37BB9D1E9062301F1200182FABD
:100280004CF200F10800A4FA8CF283FA4CF3A2FAC3
:100290008CF3002BC6D0002A04BF04301A4612BAD1
:1002A000B2FA82F2FDE8024500EBD2007047D1E9D4
:1002B000002304F00305C4F100004FEAC50514F063
:1002C000040F91F840F00CFA05F562EA05021CBF34
:1002D00063EA050362464FF00004A9E7000000004E
:1002E00001F0FF01102A2BDB10F0070F08D010F8E7
:1002F000013B013A8B422DD010F0070F42B3F6D1EB
:10030000F0B441EA012141EA014122F007047FF003
:1003100000070023F0E80256083C85EA010586EA5A
:10032000010685FA47F5A3FA87F586FA47F6A5FA96
:1003300087F68EB9EED1F0BC01F0FF0102F00702A2
:1003400032B110F8013B013A83EA010313B1F8D14D
:100350000020704701387047002D06BF354603382E
:10036000073815F0010F07D1013015F4807F02BF67
:10037000013015F4C03F0130F0BC0138704700BFB8
:10038000844641EA000313F003036DD1403A41D3A0
:1003900051F8043B40F8043B51F8043B40F8043B5F
:1003A00051F8043B40F8043B51F8043B40F8043B4F
:1003B00051F8043B40F8043B51F8043B40F8043B3F
:1003C00051F8043B40F8043B51F8043B40F8043B2F
:1003D00051F8043B40F8043B51F8043B40F8043B1F
:1003E00051F8043B40F8043B51F8043B40F8043B0F
:1003F00051F8043B40F8043B51F8043B40F8043BFF
:1004000051F8043B40F8043B51F8043B40F8043BEE
:10041000403ABDD2303211D351F8043B40F8043B8E
:1004200051F8043B40F8043B51F8043B40F8043BCE
:1004300051F8043B40F8043B103AEDD20C3205D39E
:1004400051F8043B40F8043B043AF9D2043208D096
:10045000D2071CBF11F8013B00F8013B01D30B8808
:1004600003806046704700BF082A13D38B078DD0E6
:1004700010F003038AD0C3F10403D21ADB071CBFB8
:1004800011F8013B00F8013B80D331F8023B20F822
:10049000023B7BE7043AD9D3013A11F8013B00F85B
:1004A000013BF9D20B7803704B7843708B788370E3
:1004B0006046704781F0004102E000BF83F00043D6
:1004C00030B54FEA41044FEA430594EA050F08BFEF
:1004D00090EA020F1FBF54EA000C55EA020C7FEAB3
:1004E000645C7FEA655C00F0E2804FEA5454D4EB30
:1004F0005555B8BF6D420CDD2C4480EA020281EAFA
:10050000030382EA000083EA010180EA020281EA31
:100510000303362D88BF30BD11F0004F4FEA013183
:100520004FF4801C4CEA113102D0404261EB410192
:1005300013F0004F4FEA03334CEA133302D0524218
:1005400063EB430394EA050F00F0A780A4F10104D4
:10055000D5F1200E0DDB02FA0EFC22FA05F280180E
:1005600041F1000103FA0EF2801843FA05F35941F4
:100570000EE0A5F120050EF1200E012A03FA0EFC73
:1005800028BF4CF0020C43FA05F3C01851EBE3719D
:1005900001F0004507D54FF0000EDCF1000C7EEBBA
:1005A00000006EEB0101B1F5801F1BD3B1F5001FF8
:1005B0000CD349085FEA30004FEA3C0C04F1010417
:1005C0004FEA445212F5800F80F09A80BCF1004F40
:1005D00008BF5FEA500C50F1000041EB045141EAC2
:1005E000050130BD5FEA4C0C404141EB0101013C8B
:1005F00028BFB1F5801FE9D291F0000F04BF01467A
:100600000020B1FA81F308BF2033A3F10B03B3F14B
:1006100020020CDA0C3208DD02F1140CC2F10C02DB
:1006200001FA0CF021FA02F10CE002F11402D8BF39
:10063000C2F1200C01FA02F120FA0CFCDCBF41EA05
:100640000C019040E41AA2BF01EB0451294330BDD4
:100650006FEA04041F3C1CDA0C340EDC04F11404B1
:10066000C4F1200220FA04F001FA02F340EA030088
:1006700021FA04F345EA030130BDC4F10C04C4F1CE
:10068000200220FA02F001FA04F340EA03002946AE
:1006900030BD21FA04F0294630BD94F0000F83F4F8
:1006A000801306BF81F480110134013D4EE77FEADB
:1006B000645C18BF7FEA655C29D094EA050F08BF27
:1006C00090EA020F05D054EA000C04BF1946104608
:1006D00030BD91EA030F1EBF0021002030BD5FEA4C
:1006E000545C05D14000494128BF41F0004130BD74
:1006F00014F580043CBF01F5801130BD01F00045C8
:1007000045F0FE4141F470014FF0000030BD7FEA3A
:10071000645C1ABF194610467FEA655C1CBF0B4635
:10072000024650EA013406BF52EA033591EA030F4C
:1007300041F4002130BD00BF90F0000F04BF002144
:10074000704730B54FF4806404F132044FF0000577
:100750004FF0000150E700BF90F0000F04BF0021F0
:10076000704730B54FF4806404F1320410F0004556
:1007700048BF40424FF000013EE700BF42004FEA51
:10078000E2014FEA31014FEA02701FBF12F07F43CE
:1007900093F07F4F81F06051704732F07F4208BF85
:1007A000704793F07F4F04BF41F40021704730B58C
:1007B0004FF4607401F0004521F000411CE700BFD8
:1007C00050EA010208BF704730B54FF000050AE05B
:1007D00050EA010208BF704730B511F0004502D55C
:1007E000404261EB41014FF4806404F132045FEA5E
:1007F000915C3FF4D8AE4FF003025FEADC0C18BF07
:1008000003325FEADC0C18BF033202EBDC02C2F1F8
:10081000200300FA03FC20FA02F001FA03FE40EA8A
:100820000E0021FA02F11444BDE600BF70B54FF08E
:10083000FF0C4CF4E06C1CEA11541DBF1CEA13556C
:1008400094EA0C0F95EA0C0F00F0DEF82C4481EAD4
:10085000030621EA4C5123EA4C5350EA013518BFF4
:1008600052EA033541F4801143F4801338D0A0FBE1
:1008700002CE4FF00005E1FB02E506F00042E0FB8E
:1008800003E54FF00006E1FB03569CF0000F18BF94
:100890004EF0010EA4F1FF04B6F5007F64F540743C
:1008A00004D25FEA4E0E6D4146EB060642EAC621CF
:1008B00041EA55514FEAC52040EA5E504FEACE2E3C
:1008C000B4F1FD0C88BFBCF5E06F1ED8BEF1004F3F
:1008D00008BF5FEA500E50F1000041EB045170BDBB
:1008E00006F0004646EA010140EA020081EA0301FF
:1008F000B4EB5C04C2BFD4EB0C0541EA045170BDFB
:1009000041F480114FF0000E013C00F3AB8014F174
:10091000360FDEBF002001F0004170BDC4F10004BD
:10092000203C35DA0C341BDC04F11404C4F120053E
:1009300000FA05F320FA04F001FA05F240EA020099
:1009400001F0004221F0004110EBD37021FA04F6CF
:1009500042EB06015EEA430E08BF20EAD37070BD89
:10096000C4F10C04C4F1200500FA04F320FA05F0E8
:1009700001FA04F240EA020001F0004110EBD370EA
:1009800041F100015EEA430E08BF20EAD37070BD5A
:10099000C4F1200500FA05F24EEA020E20FA04F333
:1009A00001FA05F243EA020321FA04F001F00041E2
:1009B00021FA04F220EA020000EBD3705EEA430E53
:1009C00008BF20EAD37070BD94F0000F0FD101F082
:1009D0000046400041EB010111F4801F08BF013CBB
:1009E000F7D041EA060195F0000F18BF704703F0F9
:1009F0000046520043EB030313F4801F08BF013D80
:100A0000F7D043EA0603704794EA0C0F0CEA13553B
:100A100018BF95EA0C0F0CD050EA410618BF52EAF5
:100A20004306D1D181EA030101F000414FF00000FB
:100A300070BD50EA410606BF1046194652EA430609
:100A400019D094EA0C0F02D150EA013613D195EA7D
:100A50000C0F05D152EA03361CBF104619460AD1C5
:100A600081EA030101F0004141F0FE4141F47001CF
:100A70004FF0000070BD41F0FE4141F4780170BDBF
:100A800070B54FF0FF0C4CF4E06C1CEA11541DBF24
:100A90001CEA135594EA0C0F95EA0C0F00F0A7F826
:100AA000A4EB050481EA030E52EA03354FEA013153
:100AB00000F088804FEA03334FF0805545EA131366
:100AC00043EA12634FEA022245EA111545EA10652E
:100AD0004FEA00260EF000419D4208BF964244F1C5
:100AE000FD0404F5407402D25B084FEA3202B61AE4
:100AF00065EB03055B084FEA32024FF480104FF4B8
:100B0000002CB6EB020E75EB030E22BFB61A75462B
:100B100040EA0C005B084FEA3202B6EB020E75EBBE
:100B2000030E22BFB61A754640EA5C005B084FEA26
:100B30003202B6EB020E75EB030E22BFB61A7546F3
:100B400040EA9C005B084FEA3202B6EB020E75EBFE
:100B5000030E22BFB61A754640EADC0055EA060EBF
:100B600018D04FEA051545EA16754FEA06164FEA02
:100B7000C30343EA52734FEAC2025FEA1C1CC0D1AE
:100B800011F4801F0BD141EA00014FF000004FF03B
:100B9000004CB6E711F4801F04BF01430020B4F1FC
:100BA000FD0C88BFBCF5E06F3FF6AFAEB5EB030CB4
:100BB00004BFB6EB020C5FEA500C50F1000041EBB1
:100BC000045170BD0EF0004E4EEA113114EB5C047E
:100BD000C2BFD4EB0C0541EA045170BD41F4801151
:100BE0004FF0000E013C90E645EA060E8DE60CEA59
:100BF000135594EA0C0F08BF95EA0C0F3FF43BAF76
:100C000094EA0C0F0AD150EA01347FF434AF95EA2C
:100C10000C0F7FF425AF104619462CE795EA0C0F10
:100C200006D152EA03353FF4FDAE1046194622E7DD
:100C300050EA410618BF52EA43067FF4C5AE50EAB7
:100C400041047FF40DAF52EA43057FF4EBAE12E7A7
:100C50004FF0FF3C06E000BF4FF0010C02E000BF88
:100C60004FF0010C4DF804CD4FEA410C7FEA6C5C6B
:100C70004FEA430C18BF7FEA6C5C1BD001B050EA0E
:100C8000410C0CBF52EA430C91EA030F02BF90EAF9
:100C9000020F0020704710F1000F91EA030F58BFB8
:100CA000994208BF90422CBFD8176FEAE37040F01A
:100CB000010070474FEA410C7FEA6C5C02D150EAB8
:100CC000013C07D14FEA430C7FEA6C5CD6D152EA73
:100CD000033CD3D05DF8040B704700BF8446104638
:100CE00062468C461946634600E000BF01B5FFF737
:100CF000B7FF002848BF10F1000F01BD4DF808ED07
:100D0000FFF7F4FF0CBF012000205DF808FB00BFD7
:100D10004DF808EDFFF7EAFF34BF012000205DF831
:100D200008FB00BF4DF808EDFFF7E0FF94BF01207E
:100D300000205DF808FB00BF4DF808EDFFF7CEFF7F
:100D400094BF012000205DF808FB00BF4DF808EDBE
:100D5000FFF7C4FF34BF012000205DF808FB00BF8F
:100D60004FEA410C7FEA6C5C02D150EA013C0AD1A7
:100D70004FEA430C7FEA6C5C02D152EA033C02D199
:100D80004FF0000070474FF0010070474FEA4102FA
:100D900012F5001215D211D56FF47873B3EB6252CD
:100DA00012D94FEAC12343F0004343EA505311F0F4
:100DB000004F23FA02F018BF404270474FF0000086
:100DC000704750EA013005D111F0004008BF6FF0C4
:100DD000004070474FF00000704700BF53B94AB958
:100DE000002908BF00281CBF4FF0FF314FF0FF3033
:100DF00000F074B9ADF1080C6DE904CE00F006F80E
:100E0000DDF804E0DDE9022304B070472DE9F04786
:100E1000089D04468E46002B4DD18A42944669D9DE
:100E2000B2FA82F252B101FA02F3C2F1200120FAC1
:100E300001F10CFA02FC41EA030E94404FEA1C480F
:100E4000210CBEFBF8F61FFA8CF708FB16E341EA0B
:100E5000034306FB07F199420AD91CEB030306F191
:100E6000FF3080F01F81994240F21C81023E6344B2
:100E70005B1AA4B2B3FBF8F008FB103344EA034456
:100E800000FB07F7A7420AD91CEB040400F1FF336B
:100E900080F00A81A74240F207816444023840EAA8
:100EA0000640E41B00261DB1D4400023C5E90043E1
:100EB0003146BDE8F0878B4209D9002D00F0EF8064
:100EC0000026C5E9000130463146BDE8F087B3FA97
:100ED00083F6002E4AD18B4202D3824200F2F9807F
:100EE000841A61EB030301209E46002DE0D0C5E982
:100EF000004EDDE702B9FFDEB2FA82F2002A40F0CE
:100F00009280A1EB0C014FEA1C471FFA8CFE0126D0
:100F1000200CB1FBF7F307FB131140EA01410EFB74
:100F200003F0884208D91CEB010103F1FF3802D21B
:100F3000884200F2CB804346091AA4B2B1FBF7F015
:100F400007FB101144EA01440EFB00FEA64508D938
:100F50001CEB040400F1FF3102D2A64500F2BB8075
:100F60000846A4EB0E0440EA03409CE7C6F12007C4
:100F7000B34022FA07FC4CEA030C20FA07F401FA0A
:100F800006F31C43F9404FEA1C4900FA06F3B1FB93
:100F9000F9F8200C1FFA8CFE09FB181140EA0141F8
:100FA00008FB0EF0884202FA06F20BD91CEB010195
:100FB00008F1FF3A80F08880884240F28580A8F1ED
:100FC00002086144091AA4B2B1FBF9F009FB10113F
:100FD00044EA014100FB0EFE8E4508D91CEB0101DD
:100FE00000F1FF346CD28E456AD90238614440EA80
:100FF0000840A0FB0294A1EB0E01A142C846A64600
:1010000056D353D05DB1B3EB080261EB0E0101FA88
:1010100007F722FA06F3F1401F43C5E900710026E5
:101020003146BDE8F087C2F12003D8400CFA02FC3B
:1010300021FA03F3914001434FEA1C471FFA8CFE4B
:10104000B3FBF7F007FB10360B0C43EA064300FB3B
:101050000EF69E4204FA02F408D91CEB030300F1D9
:10106000FF382FD29E422DD9023863449B1B89B290
:10107000B3FBF7F607FB163341EA034106FB0EF319
:101080008B4208D91CEB010106F1FF3816D28B42C6
:1010900014D9023E6144C91A46EA004638E72E4692
:1010A000284605E70646E3E61846F8E64B45A9D28A
:1010B000B9EB020864EB0C0E0138A3E74646EAE7F9
:1010C000204694E74046D1E7D0467BE7023B6144A7
:1010D00032E7304609E76444023842E7704700BF10
:1010E000164AD2F8883043F47003C2F88830144AA4
:1010F000136843F001031360114B1B6813F0020FD8
:10110000FAD00F4B5A686FF301025A600C4B5B68C0
:1011100013F00C0FFAD10A4B1A6822F0867222F4EF
:1011200080321A6000225A601A634FF41F029A60DC
:10113000024B4FF000629A60704700BF00ED00E084
:101140000010024008B500F047F9012818D0022825
:1011500024D018B12B4B2C4A1A6014E02B4B5B6D3A
:1011600013F4007F08D0294B1B6B13F0007F03D0D2
:10117000244B274A1A6006E0224B234A1A6002E0F9
:10118000204B214A1A60214B5B68C3F30313214AA9
:10119000D15C1C4A1368CB40136008BD1B494A68E8
:1011A000C2F300424B68C3F383434968C1F3417003
:1011B00011F0C04F03D10F2B01D0023302E003EB3B
:1011C000001301332AB9144A02FB03F30D4A1360DA
:1011D000D9E70E4A526812F4003F0CD00B4A526D08
:1011E000C2F30132911C084AB2FBF1F202FB03F395
:1011F000044A1360C7E7044A02FB03F3014A136081
:10120000C1E700BF0000002000127A000010024079
:10121000006CDC02D87E000800093D00104A13680B
:1012200043F0010313600E4B1B6813F0020FFAD05A
:101230000B4B5A686FF301025A60094B5B6813F05D
:101240000C0FFAD1064B1A6822F0867222F4803213
:101250001A6000225A601A634FF41F029A607047A6
:1012600000100240030C03F1804303F504331A68B5
:1012700000F01F00012303FA00F030EA020301D05E
:10128000002070470120704710B500241120FFF79F
:10129000E9FF012804D0B4F5405F01D20134F5E73D
:1012A0001120FFF7DFFF012800D0002010BD012929
:1012B0000ED0030C03F1804303F504331A6800F0E9
:1012C0001F00012101FA00F022EA000018607047B7
:1012D000030C03F1804303F504331A6800F01F0088
:1012E00001FA00F01043186070470000042821D86C
:1012F000DFE800F003090F151B000F4B1A6861F3BC
:1013000000021A6070470C4B1A6861F310421A60B1
:101310007047094B1A6861F318621A607047064BF0
:101320001A6A61F300021A627047034B5A6A61F34A
:1013300000025A62704700BF00100240024B5A6818
:1013400060F307125A60704700100240024B5A685F
:1013500060F30A225A60704700100240024B5A683C
:1013600060F3CD225A607047001002408446A0B955
:10137000144B58686FF310405860124B586861F373
:1013800095405860C1F30111586861F35E70586070
:10139000596862F3DF71596070470A48436843F443
:1013A00080334360BCF1010F05D00648436843F425
:1013B00000334360E1E7034640686FF351405860F3
:1013C000DBE700BF00100240024B5A6860F30102E5
:1013D0005A60704700100240024B5868C0F3810009
:1013E000704700BF0010024010B50446FFF7F4FF3D
:1013F000012815D002283BD010B1354B236011E0F5
:10140000344B5B6D13F4007F07D0324B1B6B13F032
:10141000007F02D0304B236004E02D4B236001E0BD
:101420002B4B23602B494B68C3F303132B4AD25C2D
:101430002368D34063604A68C2F302222848825C72
:1014400023FA02F2E2604A68C2F3C2222548825CB3
:10145000D340A3604868C0F300704A68C2F3813289
:1014600042EA800220498A5CB3FBF2F3236110BD9B
:1014700018494A68C2F300424B68C3F38343496882
:10148000C1F3417011F0C04F03D10F2B01D00233D3
:1014900002E003EB0013013322B9144A02FB03F309
:1014A0002360BFE70B4A526812F4003F0BD0094A91
:1014B000526DC2F30132911C054AB2FBF1F202FBFC
:1014C00003F32360AEE7024A02FB03F32360A9E7BC
:1014D00000127A0000100240006CDC02007F00085D
:1014E000F07E0008F87E0008E87E000800093D0054
:1014F000012805D0054B5A6D6FF305125A657047E8
:10150000024A536D43F030035365704700100240A8
:10151000024B5A6D60F30D325A657047001002405D
:1015200030B50A681FFA82FE8B79032B18D063B995
:101530004B7903F00F01182B04D0282B11D193B253
:1015400043610EE0C0F810E00BE00D79CC7903F0B8
:10155000080105F00403194304F00303194300E0F4
:10156000002195B212F0FF0F1DD1BEF1FF0F33D94C
:101570004FEA1E2E002319E00133072BF5D845FA58
:1015800003F212F0010FF7D004689A004FF00F0C2D
:101590000CFA02FC24EA0C040460046801FA02F26A
:1015A00022430260E8E70023E7E70133072B13D863
:1015B0004EFA03F212F0010FF7D044689A004FF090
:1015C0000F0C0CFA02FC24EA0C044460446801FA93
:1015D00002F222434260E8E730BD4FF6FF7303603A
:1015E000002383710371042343710123C371704786
:1015F00000B54FEA106C0CF1804C0CF5803CC0F348
:101600000723C3F12003C0F3074EA3EB0E024FF0F4
:10161000FF339340D34023FA0EF303FA0EF3DCF8C2
:10162000002022EA0303CCF8003029B1C0B200FA4E
:101630000EF00343CCF800305DF804FB042806D01C
:101640004FF0E022136923F00403136170474FF059
:10165000E022136943F00403136170472DE9F04160
:1016600086B00546884617461E4601A8FFF7BCFE11
:101670001D4B9D420DD003F520539D4209D003F52B
:1016800080639D4205D003F580639D4201D0049C98
:1016900000E0039C04EB84046400B4FBF8F1134BFA
:1016A000A3FB0123DB0803EB8303A1EB4303042B20
:1016B00013D80E4BA3FB0131C90889B2AB6861F3A3
:1016C0000F03AB60EB6867F30C33EB602B6966F3D9
:1016D0000D332B6106B0BDE8F081044BA3FB013153
:1016E000C9080131E9E700BF00380140CDCCCCCCBE
:1016F000C36861F34D33C3607047C36861F3C303CC
:10170000C3607047C1F308014160704703680B4232
:1017100001D00120704700207047000070B50C46D2
:101720001646002511E080210A48FFF7EFFF002848
:10173000F9D014F8011B0748FFF7E4FF40210548E2
:10174000FFF7E4FF0028F9D00135B542EBDB304666
:1017500070BD00BF004C0040F0B583B006461F4B83
:101760001868002302221946806800F0CFFA012190
:101770001B48FFF79CFD01211A48FFF798FD012146
:101780004FF4C010FFF793FD01211748FFF730FF1A
:101790006846FFF722FF01248DF8074000278DF8E7
:1017A000047008238DF80630009404238DF805306A
:1017B00069460E48FFF7B4FE0D4D3B463A463146AA
:1017C0002846FFF74BFF21462846FFF796FF2146A4
:1017D0002846FFF78DFF03B0F0BD00BF24000020B6
:1017E00013001C000200180002041C2C0008014019
:1017F000004C004000B583B001210D48FFF757FDB4
:101800006846FFF7EAFE01238DF8073000238DF8C4
:1018100004308DF806300223009328238DF805301C
:1018200069460448FFF77CFE03B05DF804FB00BF87
:10183000020018000008014010B582B004460121E2
:101840000F4B53F82000FFF732FD6846FFF7C5FE47
:1018500001238DF8073000238DF8043010238DF814
:101860000630084B33F81430009304238DF805300C
:101870006946054B53F82400FFF752FE02B010BD35
:10188000040000201000002018000020022807D8C3
:10189000044B33F810301BB1034A52F82020136177
:1018A000704700BF100000201800002008B5042079
:1018B000FFF7C4FE074B1B68074AA2FB03239B0CE0
:1018C000064A136013684FF47A7202FB03F3044A6A
:1018D000136008BD0000002083DE1B43F0090020D8
:1018E000EC09002008B5FFF7E1FF0020FFF7A4FF97
:1018F0000120FFF7A1FF0220FFF79EFF0020FFF766
:10190000C5FF0120FFF7C2FF0220FFF7BFFFFFF76F
:1019100071FF08BD1EE0174B1B6803FB00F04FF082
:10192000E023586100204FF0E02300229A611A69F9
:1019300042F001021A614FF0E0231B6903F001132A
:10194000012BF8D04FF0E0231A6922F001021A614E
:1019500000229A6160B13228DDD9064B1B68322221
:1019600002FB03F34FF0E0225361323880B2DAE732
:10197000704700BFEC09002038B50546002409E097
:101980004FF4FA70FFF7C6FF4FF4FA70FFF7C2FF8B
:101990000134A4B2AC42F3D338BD08B5FFF73EFC26
:1019A00001210846FFF7A2FCFFF76EFC0028FBD0E0
:1019B00001223B210220FFF7D9FC0020FFF7A8FD00
:1019C00001210220FFF792FC1920FFF74BFC0128B0
:1019D000FAD10020FFF7B2FC0420FFF7BFFC04207F
:1019E000FFF7B4FC0120FFF783FD0220FFF7ECFCBA
:1019F000FFF7F2FC0228FBD10020FFF779FDFFF78B
:101A0000A1FB08BD7047FEE7FEE7FEE7FEE7704773
:101A1000704770477047000008B5FFF7BEFFFFF73B
:101A200061FF4FF4E130FFF797FE074800F066F9D9
:101A3000064B19684A1C1A60054800F0FDF80120A1
:101A4000FFF79AFFF4E700BF107F0008F4090020B9
:101A50005C7F0008002103E00B4B5B5843500431CE
:101A60000A480B4B42189A42F6D30A4A02E0002376
:101A700042F8043B084B9A42F9D3FFF731FB00F0E0
:101A800065F8FFF7C9FF70478C830008000000204D
:101A9000D0090020D0090020440A0020FEE70120E0
:101AA000704708B500F04CF8162303604FF0FF3084
:101AB00008BD08B54FF0FF31FFF7F3FFFEE770B543
:101AC0000C461646002506E0AFF30080214601F8DB
:101AD000010B01350C46B542F6DB304670BD4FF0C8
:101AE000FF3070474FF400534B60002070470120D7
:101AF000704700207047000010B503460C4A0D499E
:101B00000D48006840B10C4800680344521A9342E3
:101B100006D8094A136010BD0748084C0460F2E774
:101B200000F00EF80C2303604FF0FF30F3E700BF26
:101B30000080012000040000F8090020480A00206D
:101B4000014B1868704700BF2400002070B50D4E8F
:101B50000D4D761BB61006D0002455F8043B013419
:101B60009847A642F9D1094E094D761B06F0A8F90F
:101B7000B61006D0002455F8043B01349847A6421D
:101B8000F9D170BD80830008808300088883000835
:101B900080830008830730B548D0541E002A3FD008
:101BA000CAB2034601E0013C3AD303F8012B9D077A
:101BB000F9D1032C2DD9CDB245EA05250F2C45EAE4
:101BC000054536D9A4F1100222F00F0C03F1200EC6
:101BD000E6444FEA121C03F1100242E9045542E9BF
:101BE000025510327245F8D10CF1010214F00C0FBD
:101BF00003EB021204F00F0C13D0ACF1040323F03A
:101C000003030433134442F8045B9342FBD10CF00A
:101C100003042CB1CAB21C4403F8012B9C42FBD133
:101C200030BD64461346002CF4D1F9E70346144650
:101C3000BFE71A46A446E0E70FB400B5074983B0F2
:101C400004AB086853F8042B8168019300F038F95D
:101C500003B05DF804EB04B0704700BF240000201F
:101C600070B5054688B008460C46FEF7C9FA224E04
:101C7000AA6B059001214318CDE9066104A8022151
:101C800004940393AC680190029122B3636E13F045
:101C9000010FB4F90C309AB201D1980525D5910401
:101CA00006D4626E43F4005322F40052A3816266AC
:101CB000284601AA214603F083FA636E002814BF68
:101CC0004FF0FF350A25DA0702D4A3899B0506D514
:101CD000284608B070BD284603F074F8D6E7A06D1A
:101CE00003F014FC284608B070BDA06D03F00CFC96
:101CF000B4F90C309AB2D2E77C7F0008024B01465F
:101D00001868FFF7ADBF00BF240000202DE9F043A5
:101D1000694CD4F8008083B004460E4617461D4631
:101D2000B8F1000F03D0D8F83830002B77D0022F4D
:101D300005D0012F00F2AC80002DC0F2A980636EA7
:101D4000DA0752D52146404603F008F8216B41B12D
:101D500004F14003994202D0404603F02BF90023DE
:101D60002363B4F90CC000231CF0800FA3616360EF
:101D700064D12CF44A6C2CF0030C022FA4F80CC094
:101D80006AD001AB6A462146404603F031FCA38984
:101D90001843A081002D2FD0002E2ED0D8F8383037
:101DA000002B38D0009B2660AB42B4F90C301CBF2E
:101DB00043F40063A381012F04BF43F00103A38117
:101DC0009AB213F00803C4E904652CD0D1075DD59D
:101DD0006D42A561656E002315F00105A36027D053
:101DE0000025284603B0BDE8F083A3899B05A9D44C
:101DF000A06D03F089FBA5E7009D284603F028FCB1
:101E00000646002847D0A38943F08003A381D8F871
:101E10003830002BC6D1404602F0D4FFC2E740461E
:101E200002F0D0FF83E7A360656E15F00105D7D1FE
:101E3000930524D5284603B0BDE8F08321694046C8
:101E400003F0B8F8B4F90CC02CF44A6C2CF0030C75
:101E5000022FA4F80CC094D10025002204F1430302
:101E6000A2600122C4E904322360636E4CF0020CCC
:101E7000D807A4F80CC0DDD41CF4007FDAD1A06D23
:101E800003F044FB284603B0BDE8F083A560CBE730
:101E90004FF0FF35CEE7DDF80090A94504D0484665
:101EA00003F0D6FB064620B9B4F90CC04FF0FF355D
:101EB000D3E74D46A7E700BF240000200000000044
:101EC0002DE9F04F2DED0A8BCFB01C460AEE101A0B
:101ED00091460AEE900A054603F00EFB0368139341
:101EE00018460994FEF78CF912901DB1AB6B002BCC
:101EF00000F048821AEE102A536EDB0740F147814A
:101F0000B2F90C309AB2960409D41AEE101A43F4BE
:101F100000538B819AB24B6E23F400534B66150726
:101F200040F1CC801AEE103A1B69002B00F0C680FD
:101F300002F01A030A2B00F0D2804D469FED9C7BE5
:101F40002B78002425AACDE92344CDE91544CDE919
:101F500017448DED107B1AEE909A0E9422929046C3
:101F600014940694002B00F0B081AB4604E01BF8FB
:101F7000013F002B00F0CD80252BF8D1BBEB0506EF
:101F800040F0CB809BF80030002B00F09E810023B6
:101F90004FF0FF329BF801708DF86B3005930BF119
:101FA000010B04929A462B2420210BF1010BA7F17F
:101FB00020035A2B00F20081DFE813F00A03FE0031
:101FC000FE000503FE00FE00FE006A00FE00FE00AB
:101FD00076029E02FE008102A802FE00A3025B00C0
:101FE0005B005B005B005B005B005B005B005B0019
:101FF000FE00FE00FE00FE00FE00FE00FE008E0160
:10200000FE001602ED018E018E018E01FE00FE0023
:10201000FE00FE000003FE00FE004502FE00FE0082
:10202000FE002002FE00C202FE00FE009907FE0034
:10203000FE00FE00FE00FE00FE00FE00FE008E011F
:10204000FE001602EF018E018E018E01E602EF0105
:10205000E801FE00F302FE0086024702D402E80116
:10206000FE0020027D007507FE00FE007907FE00DD
:102070007D00A7F1300300221BF8017B02EB8202F6
:1020800003EB4202A7F13003092BF5D905928EE745
:10209000484603F031FA436817931846FEF7B0F844
:1020A00018900646484603F027FA836815932021C6
:1020B000002E40F0E9869BF8007076E71AEE101AC1
:1020C0001AEE900A1AEE105A01F002FD002841F0B3
:1020D0002783AA8902F01A030A2B7FF42EAF1AEE87
:1020E000101AB1F90E30002BFFF627AF4B6ED9074F
:1020F00002D4920541F15A811AEE101A1AEE900A92
:1021000023464A464FB0BDEC0A8BBDE8F04F01F0C4
:102110009FBCBBEB050600F0D880249B334424937E
:10212000239B0133072BC8E90056239305DC08F1F4
:102130000808069B3344069324E71AEE101A22AAD5
:10214000484604F065FC90B90DF19408F1E71AEEE9
:10215000101A22AA484604F05BFC002800F0A68072
:10216000089B23B11AEE900A194602F023FF1AEEDB
:10217000102A536ED80740F1FA8093895A0601F16C
:10218000D88206984FB0BDEC0A8BBDE8F08FB2F94B
:102190000C309F059AB23FF5B6AE1AEE105AA86DF4
:1021A00003F0B2F9B5F90C309AB2ACE6AFF30080A7
:1021B0000000000000000000002F00F086800023D7
:1021C0008DF8D4708DF86B300122CDE9072303928E
:1021D00004930C930F930D9335AD1AF002020A92FB
:1021E00002D0039A023203921AF084020B9205D1B4
:1021F000059A0399561A002E00F36883249C8BB12C
:10220000239B0DF16B0201330134C8F80020072B2A
:102210004FF0010224942393C8F8042000F39F8315
:1022200008F108080A9B83B1239B1BAA01330234DF
:10223000C8F80020072B4FF0020224942393C8F81B
:10224000042000F3998308F108080B9B802B00F011
:102250006A82049B079A9E1A002E00F3AB821AF43E
:10226000807F40F00682079BC8F804301C44239B03
:10227000C8F800500133072B2494239300F31983EB
:1022800008F108081AF0040F05D0059B039A9D1A5F
:10229000002D00F38583DDE9052303998A42ACBF55
:1022A0009B185B180693002C7FF451AF00232393F7
:1022B000089B1BB10899484602F07CFE0DF194087A
:1022C0005D462B78002B7FF450AE249B002B41F011
:1022D0001B82002323934AE7099B073323F007035C
:1022E000B3EC027B8DED107BDDE91012099322F037
:1022F00000430BEE101A0BEE903A4FF0FF32B0EEA7
:102300004B9AF0EE6B9AB74B51EC190BFEF728FD88
:10231000002840F0E884B34B51EC190B4FF0FF322A
:10232000FEF700FD002840F0DE84DDE91001002208
:102330000023FEF7EDFC002840F067879DF86B3026
:10234000A94DAA4A2AF0800A0321472FC8BF154683
:10235000002208920391079104920C920F920D9221
:10236000002B3FF43AAF039A0132039235E7938989
:1023700099053FF503AF1AEE104A906D03F0C6F8C9
:10238000A389FBE6284602F01DFDB3E59BF800702B
:102390004AF0200A09E64AF0100A1AF0200F099BB9
:1023A00000F04084073323F007031A465B6852F8B5
:1023B000084B09921E46002BC0F24384049B013354
:1023C00000F0BC822AF08003039354EA060340F035
:1023D000B782049B002B40F0B882DDF80CA00023EC
:1023E000049307934EAD1FE1099A002352F8041B92
:1023F0008DF86B308DF8D4100992E5E6099C54F8FD
:10240000045B00268DF86B60002D00F08F85049B27
:102410005A1C00F051861A4631462846FDF760FFE7
:102420000890002801F02F81089B0496591B079102
:1024300021EAE1719DF86B300994039108960C969E
:102440000F960D968CE74AF0100A1AF0200600F05D
:10245000C983099B073323F007035E6853F8084BD1
:1024600009932AF480630393002300228DF86B20E4
:10247000049A551C00F0C080039921F0800A54EAA8
:10248000060140F0B780002A40F00786002BA6D155
:10249000039B13F00103079300F0148430238DF89D
:1024A00037310DF23715BFE0099B53F8042B059225
:1024B000002A80F2D583059A0993524205929BF82F
:1024C00000704AF0040A70E51AF0200F40F0D18441
:1024D0001AF0100F40F0E7851AF0400F40F0A9867F
:1024E0001AF4007F00F0DF85099B069953F8042B4E
:1024F000099311705D46E4E69BF800708DF86B401F
:1025000053E59BF800704AF0800A4EE55A4612F8EF
:10251000017B2A2F01F06F82A7F13003092B93462C
:1025200098BF002201F2EC801BF8017B02EB8202D3
:1025300003EB4202A7F13003092BF5D9049236E5EB
:102540004AF010030393039B13F0200600F0598315
:10255000099B073323F007035E6853F8084B099380
:10256000012382E7099B53F8044B099330234AF077
:10257000020278278DF86C301D4B149303928DF86E
:102580006D700026022370E79BF80070682F03BF70
:102590009BF801704AF4007A0BF1010B4AF0400AF3
:1025A00003E59BF800706C2F03BF9BF801704AF0A5
:1025B000200A0BF1010B4AF0100AF6E49BF80070B8
:1025C0004AF0080AF1E49BF800704AF0010AECE4D2
:1025D0009DF86B30002B7FF46EAD9BF800708DF88A
:1025E0006B10E2E4FFFFEF7F807F0008847F00082C
:1025F000907F0008CDF80CA0012B00F0A181022BE8
:102600004EAD20D1149A04F00F032409D35C05F8D1
:10261000013D44EA0674360954EA0603F3D14EAB91
:102620005B1BDDF80CA00793049907989DF86B30AD
:1026300081424FF00002B8BF0146089203910C920C
:102640000F920D928CE604F00703E40844EA467406
:10265000F608303354EA06012A4605F8013DF2D166
:102660000399CC0700F175824EAB5B1B8A4607933A
:10267000DAE7652F40F3D780DDE91001002200235F
:10268000FEF73CFB002800F0C681239BC14AC8F836
:102690000020013301340122072B24942393C8F82E
:1026A000042000F3DE8408F108081C9B0E9A934274
:1026B00080F2D182129B139A1C44C8E90023239B09
:1026C00024940133072B239300F3228408F1080894
:1026D0000E9B5D1E002D7FF7D5AD102D239B41F382
:1026E0006981AD4F0A97224610261AEE104A05E07E
:1026F00008F10808103D102D40F3C1840133103259
:10270000072BC8E90076CDE92332F1DD22AA214664
:10271000484604F07DF900287FF422ADDDE923323C
:102720000DF19408E6E7059B039A9E1A002E7FF7A9
:1027300090AD102E239B41F33F8097490B95224685
:102740001AEE105A0A910C4604E0103E102E08F1C1
:10275000080819DD013310321021072BCDE923328F
:10276000C8F80040C8F80410EFDD22AA2946484600
:102770000DF1940804F04CF900287FF4F1AC103E00
:10278000102EDDE92332E5DC0B9D144601330A9A55
:10279000C8F800203444072BCDE92334C8F804607E
:1027A00000F3A883049B079A9E1A002E08F10808DC
:1027B0007FF755AD102E239B40F30F8576480A9086
:1027C000424621461AEE108A044604E0103E102EBE
:1027D00002F1080216DD013310311020072BCDE97C
:1027E000233114605060F1DD22AA4146484604F0CE
:1027F0000FF900287FF4B4AC103E102EDDE9233130
:1028000025AAE8DC90460C4601330A9AC8F8002055
:102810003444072BCDE92334C8F8046000F3D48195
:1028200008F108081BE50E9B012B40F37381239EE2
:10283000C8F80050013601340123072E2494239652
:10284000C8F8043000F3968308F10808129B139A25
:1028500001361C44072EC8E90023CDE9236400F3A8
:10286000978308F10808DDE9100100220023FEF734
:1028700045FA002840F07B810E9B0136013B013573
:102880001C44072EC8F800502396C8F8043024943E
:1028900000F3518108F10808169BC8F8043001368E
:1028A0001C44072E1EABCDE92364C8F800307FF727
:1028B000E7AC1AEE101A22AA484604F0A9F800283C
:1028C0007FF44EAC249C0DF19408DBE4102EDDE97E
:1028D000233222DD199510241AEE105A04E0103E1E
:1028E000102E08F1080817DD01332C491032072B90
:1028F000C8E90014CDE92332F1DD22AA2946484671
:102900000DF1940804F084F800287FF429AC103EFF
:10291000102EDDE92332E7DC199DC8F8046001338D
:10292000B418072B1D4AC8F80020CDE9233400F362
:102930007D839DF86B3008F1080860E4CDF80CA0A9
:102940000A2C76F1000380F0318330340123DDF866
:102950000CA08DF8374107930DF2371564E61AEE97
:10296000101A22AA484604F053F800287FF4F8AB66
:10297000249C0DF1940855E41AEE101A22AA484638
:1029800004F046F800287FF4EBAB249C0DF194088A
:102990005BE400BFC07F0008D47F0008C47F00084C
:1029A000102D239B20DD1AEE107A102604E0103D36
:1029B000102D08F1080817DD0133AC4A1034072B3D
:1029C000C8E90026CDE92334F1DD22AA394648467C
:1029D0000DF1940804F01CF800287FF4C1AB103D01
:1029E000102DDDE92334E7DC0133A04AC8F8045098
:1029F0002C44072BCDE92334C8F800207FF74BACDB
:102A00001AEE101A22AA484604F002F800287FF4B1
:102A1000A7AB249C3FE41C9A002A40F32B81DDE9FC
:102A20000D739F42A8BF1F46002F0BDD239B013370
:102A30003C44072BC8E900572494239300F3D58521
:102A400008F108080D9E002FA8BFF61B002E00F30A
:102A500044830D9B1AF4806F2B44079340F0E3846A
:102A60001C9B0E9A934203DB1AF0010F00F0D283F5
:102A7000129A13991444C8E90012239A249401323B
:102A8000072A239200F3BF8508F108080E9A0799D8
:102A9000AE18761AD51AAE42A8BF2E46002E0DDD0E
:102AA000239BC8F8001001333444072BC8F8046096
:102AB0002494239300F3098608F10808002EA8BF88
:102AC000AD1B002D7FF7DEAB102D239B40F37287EB
:102AD000674F0A97224610261AEE104A05E008F1C1
:102AE0000808103D102D40F3CA8201331032072B25
:102AF000C8E90076CDE92332F1DD22AA2146484615
:102B000003F086FF00287FF42BABDDE923320DF1C3
:102B10009408E6E71AF0010F7FF489AE239EC8F807
:102B20000050013601340123072E24942396C8F85F
:102B300004307FF7AFAE1AEE101A22AA484603F00F
:102B400067FF00287FF40CABDDE923640DF19408E6
:102B5000A2E6302B3FF463AD3023023A05F8013C86
:102B60004EAB9B1ADDF80CA0079315465CE50E9B57
:102B70005D1E002D7FF790AE102D40F321873C4A5B
:102B8000CDF810A023461AEE10AA0A921027144678
:102B900005E008F10808103D102D40F3E3820136EE
:102BA0001033072EC8E90047CDE92363F1DD22AADF
:102BB0005146484603F02CFF00287FF4D1AADDE9F6
:102BC00023630DF19408E6E71AEE101A22AA48468C
:102BD00003F01EFF00287FF4C3AA249C0DF1940883
:102BE000FFF73DBB1AF0100340F03D811AF04002A0
:102BF00000F0C882099A52F8044B09921E46A4B20A
:102C00002FE4039B13F0100366D1039A12F04002E5
:102C100000F0C682099A52F8044B09921E46A4B2EB
:102C2000012322E453F8044B09931AF0100F4FD1FB
:102C30001AF0400F48D044F3C036334624B2FFF7B1
:102C4000BABB2D2364428DF86B3066EB4606CDF897
:102C50000CA001230CE41AF0010F3FF413AB29E59B
:102C60009BF800700993FFF7A0B900BFC47F00086C
:102C7000D47F0008239BB649C8F800100133013403
:102C80000121072B24942393C8F8041000F38484B3
:102C900008F10808002A40F046820E9A0AF0010363
:102CA00013433FF4EFAA129B139A1C44C8E9002374
:102CB000239B24940133072B239300F3688308F1AB
:102CC000080841E24EADAFE41AF4007F40F0AB8259
:102CD000E6173346FFF76FBB099B53F8044B099384
:102CE0000123FFF7C2BBDDE9100102460B46FEF7E8
:102CF00037F8002840F02E86612F00F07F85412FA5
:102D000000F0A082049B013327F02003039300F01E
:102D1000C085472B00F0AB85DDE910014AF48072D5
:102D2000002907924FF00003C0F2458441EC180BD4
:102D30000A930893039B462B00F07484452B00F004
:102D40002585B0EE480AF0EE680A20AB01931DAB72
:102D50000093049A1CAB0221484600F0C9FF039B74
:102D6000472B054640F05E861AF0010F5646DDF807
:102D70001CA040F0E384209B5B1B0E93039B472B1E
:102D800000F01B83039B462B00F089841C9B0D9352
:102D90000D9B039A013B412A1C9300F0E985FAB28E
:102DA0000021002BB8BF0D9B8DF87820BABFC3F16E
:102DB00001032D222B22092B8DF8792040F36D85FC
:102DC0000DF18704DFF898C1224610468CFB0321E1
:102DD000DA17C2EBA10202EB8201A3EB4101303111
:102DE00000F8011C19466329134600F1FF32ECDCA0
:102DF0003033D9B2831E9C4202F8011C40F20E8689
:102E000013460DF17A0201E013F8011B02F8011BD1
:102E10009C42F9D10DF189030DF17A021B1A13447A
:102E20001EAA9B1A16930E9B169A012B1A44079200
:102E300040F3B285079B129A13440793079A002325
:102E400026F4806622EAE27246F4807A0C930392BA
:102E50000F930D930A9B002B40F0DE8204939DF8A4
:102E60006B30FFF77DBA099B53F8044B0993FFF7CA
:102E7000F8BA099B069853F8041B0993C217C1E9D5
:102E800000025D46FFF71DBA159B002B3FF413A906
:102E9000159B1B78002B3FF40EA99BF800704AF499
:102EA000806AFFF782B8CDF80CA0FFF74CBB294B26
:102EB00014931AF0200655D0099B073323F007031B
:102EC0005E6853F8084B09931AF0010F09D054EAD1
:102ED000060306D030238DF86D704AF0020A8DF893
:102EE0006C302AF4806303930223FFF7BEBA1A4BB7
:102EF0001493DEE71AEE101A22AA484603F088FD62
:102F000000287FF42DA9249C0DF19408FFF7A1B9A6
:102F10001AEE101A22AA484603F07AFD00287FF420
:102F20001FA9249C0DF19408FFF7D2BB049A0895C1
:102F3000062A294628BF062204952B460392074DF0
:102F4000099407920C910F910D91FFF709BA00BFF8
:102F5000C07F0008907F0008A47F0008B87F0008A9
:102F6000676666661AF0100370D0099B53F8044B2D
:102F70000993A9E71AEE101A22AA484603F048FD61
:102F800000287FF4EDA8DDE923640DF194085DE4E9
:102F90001AEE101A22AA484603F03AFD00287FF4E0
:102FA000DFA8DDE923640DF194085CE4039B0022B3
:102FB00003F48063CDE9077809EE109A0DF59C7A49
:102FC000DDF85490174698460CE000232046314621
:102FD0000A22FDF703FF0A2C76F100031CD30446F6
:102FE0000E46AA4620460A2200233146FDF7F6FE89
:102FF00030320AF1FF3501370AF8012CB8F1000F21
:10300000E3D099F800309F42DFD1FF2FDDD00A2CAA
:1030100076F1000380F0E580CDF854900E97DDF84E
:103020002080079F19EE109AFFF7F9BA1AEE101ACE
:1030300022AA484603F0ECFC00287FF491A89DF8F2
:103040006B30249C0DF19408FFF7D9B81AF04002B8
:1030500000F0B680099A52F8044B09921E46A4B2B9
:1030600032E71AEE101A22AA484603F0D1FC0028D3
:103070007FF476A8249C0DF19408FFF716BB144644
:1030800001330A9AC8F800202C44072BC8F80450D2
:10309000CDE923347FF7F4A80BE4012BCDF80CA085
:1030A0007FF4ADAA51E4099B069953F8042B5D46C1
:1030B00011600993FFF705B9284604960994FDF7B6
:1030C0009FF820EAE0719DF86B3007900391089615
:1030D0000C960F960D96FFF743B9102E239B40F3E5
:1030E0009684BC480A90424621461AEE108A102760
:1030F000044604E00832103E102E40F33B820133B8
:103100001031072BC2E90047CDE92331F2DD22AAB5
:103110004146484603F07CFC00287FF421A8DDE905
:10312000233125AAE7E7129B13991C44C8E9001331
:10313000239B24940133072B239300F3288108F168
:103140000808002AC0F2FD820E9AC8F80050013328
:103150001444072BCDE92334C8F804207FF790A846
:10316000FFF7A7BBDDF810A01C4601360A9BC8F884
:1031700000302C44072ECDE92364C8F804507FF7B3
:1031800089ABD8E4099B1AF4007614BF53F8044BBA
:1031900053F8044B09931CBF1646E4B2FFF761B91C
:1031A000039B13F40076099B14BF53F8044B53F8A8
:1031B000044B09931CBF1646E4B20123FFF755B92F
:1031C000099B1AF4007614BF53F8044B53F8044BD0
:1031D00009931CBF1646E4B276E67E4A0A92FFF7D0
:1031E00013BB189B1799ED1A1A46284603F0A2FB49
:1031F00099F801300BB109F10109204631460A2244
:1032000000230027FDF7EAFDE9E62D238DF86B305A
:10321000FFF796B80E9A0799AE18761AD51AAE42ED
:10322000A8BF2E464AE444F3C016334664B2FFF703
:10323000C2B8099B069953F8042B099311805D4687
:10324000FFF73FB830238DF86C3058238DF86D3080
:10325000049B632B4AF0020400F3D58200230893F9
:1032600035ADDDE910124AF481730793002A27F087
:103270002003A2460393C0F29F81002342EC181B57
:103280000A93612F00F04A83412F7FF453ADB0EED3
:10329000480AF0EE680A1CA803F0BEFA00224FF0BC
:1032A0007F5351EC100BFDF7C1FA02460B4643EC7D
:1032B000192B00220023FDF721FD08B101231C93E7
:1032C000454B0B93049B1995CDE90C7BCDE90EA8DA
:1032D0000CEE109ADDF82CB059EC198B5E1E2C46C2
:1032E00005E000220023013EFDF708FDE0B93B4B5D
:1032F000002240464946FDF799FA89468046FDF787
:1033000045FD0546FDF728FA0B460246494640466C
:10331000FDF7D4F81BF80530A24604F8013B731CF6
:10332000374680468946DCD149EC198B2C4BDDF8B9
:103330003C8051EC190B00223E461CEE109ADDE950
:103340000C7BCDF830A00D95DDF838A0199DFDF768
:10335000FDFC002840F0368251EC190B204B002276
:10336000FDF7CCFC18B10D9BD90700F12B82002E84
:10337000334606DB01332344302204F8012BA342F9
:10338000FBD1631B56460E93DDF81CA0F6E41AEE43
:10339000101A22AA484603F03BFB00287EF4E0AE58
:1033A000DDE923341C9A0DF19408CAE61AEE103AAE
:1033B000986D02F0ABF8FEF79FBE1C9B0D93DA1CD4
:1033C00002DB049A93420DDD023F27F020030393B2
:1033D000DEE400BFD47F0008A47F00080000304076
:1033E0000000E03FDDE90D329342C0F27F81F0073B
:1033F00040F19182129A13440793710503D50D9BF6
:10340000002B00F35A82079B23EAE3730393672799
:1034100000230C930F931DE52D2300228DF86B30B4
:103420000492FEF7A0BF0E9BCDF828B0DDF83CB0AB
:10343000079E159FCDF81CA0EB1804934246DDF8BB
:1034400060A00C9B0B951AEE108AA446BBF1000FEE
:1034500030D0002B71D1013F0BF1FF3B179BC2E92C
:10346000003A239B0133D444072BCDF890C023931B
:1034700067DC0832049B38789B1B8342A8BF034655
:10348000002B1C460BDD239801309C440728C2E921
:103490000063CDF890C023905FDC38780832002CB0
:1034A000ACBF051B0546002D17DC06440C9BBBF189
:1034B000000FCED1002B40D10B9D0E9BDDF81CA040
:1034C000DDF828B01597EB189E429046324628BF8B
:1034D0001A4664460792FFF7C3BA102D23981FDDE2
:1034E0001024634604E0103D102D02F1080216DDA1
:1034F0000130B34910330728C2E90014CDE9230392
:10350000F1DD22AA4146484603F082FA00287EF403
:1035100027AE103D102DDDE9230325AAE8DC9C46EB
:103520000130A74B5560AC440728CDE9230C13604C
:103530004DDC387808320644B8E70C9B013B0C930D
:103540008CE722AA4146484603F062FA00287EF43E
:1035500007AEDDF890C025AA8CE722AA414648466E
:1035600003F056FA00287EF4FBAD3878DDF890C001
:1035700025AA94E790460C4601330A9AC8F8002021
:103580003444072BCDE92334C8F8046000F361818B
:1035900008F10808FFF75DBA1AEE101A22AA484689
:1035A00003F036FA00287EF4DBAD1C9A249C0DF162
:1035B0009408FFF76FBB0893DDE9103408EE103A6A
:1035C00004F1004308EE903A2D230A9359E622AA0B
:1035D0004146484603F01CFA00287EF4C1AD387815
:1035E000DDF890C025AA064460E71AEE101A22AA58
:1035F000484603F00DFA00287EF4B2AD249C0DF18C
:103600009408FFF71FBA1AEE101A22AA484603F0D0
:10361000FFF900287EF4A4AD1C9B249C0DF19408B6
:10362000FFF734BA20AB01931DAB0093049AB0EEC0
:10363000480AF0EE680A1CAB0321484600F058FB2C
:103640000378302B054600F099811C9B049A56465E
:103650001344DDF81CA0EC1851EC180B00220023D9
:10366000FDF74CFB10B12346FFF786BB209BA3421E
:10367000BFF482AB30215A1C20921970209B9C42CF
:10368000F9D8FFF779BB049B0393079309949DF83E
:103690006B3004900C900F900D90FEF761BE1C9A59
:1036A0000D92002A40F39081049906F001030B4328
:1036B00040F02B810D9B07936627730500F1FE8078
:1036C000079B23EAE3730393A2E61AEE101A22AAD9
:1036D000484603F09DF900287EF442AD1C9D0E9BE8
:1036E000249C5D1B0DF19408FFF7E8B90E9B129A1C
:1036F0009A180D9B0792002B40F353816727DCE754
:1037000000230493FEF753BC1AEE101A1AEE900A27
:1037100022AA03F07DF900283EF4DBADFEF727BDB9
:103720006B6EDC0705D4AB89980502D4A86D01F057
:10373000EDFE4FF0FF330693FEF723BD049BEC181C
:103740008AE75642103280F26F811D480A90424645
:1037500021461AEE108A1027044603E00832103E74
:10376000102E5ADD01331031072BC2E90047CDE995
:103770002331F3DD22AA4146484603F049F90028E7
:103780007EF4EEACDDE9233125AAE8E7049BB0EE38
:10379000480AF0EE680A5C1C20AB01931DAB009355
:1037A00022461CAB0221484600F0A2FA05465646C6
:1037B0002C44DDF81CA04FE7014A0A92FEF7E6BF51
:1037C000D47F00080C9B20930B9B14F8012CD97B11
:1037D0008A42234609D1302003F8010C209B5A1E4F
:1037E000209213F8012C9142F6D0392A0BBF0B9A84
:1037F0000132927AD2B203F8012CC2E530238DF85F
:103800006C30782322E5591C484601F029FF054613
:10381000002800F00C81089023E590460C46013307
:103820000A9AC8F800203444072BCDE92334C8F89D
:1038300004607FF744AA1AEE101A22AA484603F041
:10384000E7F800287EF48CACDDE923340DF1940810
:103850007AE41AEE101A22AA484603F0D9F8002892
:103860007EF47EAC249C0DF19408FFF7F2B8049B23
:10387000002B08BF01230493119B4AF48072002B94
:103880000792C0F29B809DED108B0A900890FFF785
:1038900058BA06230493FFF73FBA002940F0A880E6
:1038A00030228DF87A200DF17B02303302F8013B93
:1038B0001EABD31A1693FFF7B6BA672715990B7884
:1038C000FF2B00F0A78000240D9A204603E0013072
:1038D0000131FF2B08D0934206DAD21A4B78002B25
:1038E000F5D10B780134F4E715910D920F900C94FB
:1038F0000C9A0F9B18991344079A01FB0323079313
:1039000023EAE3730393FFF7A5BA129BD318194474
:1039100007916627D1E60D9B07936EE51CA8B0EED4
:10392000480AF0EE680A02F077FF00224FF07F535A
:1039300051EC100BFCF77AFF02460B4643EC192BB7
:1039400000220023FDF7DAF908B101231C933C4B58
:103950000B93B7E4119B3B4D3B4A002BB6BF2D2385
:103960009DF86B308DF86B302AF0800AFEF7ECBCC6
:1039700007F10F02D2B20121FFF713BA51EC180B75
:1039800000220023FDF7BAF900287FF45EAE049B05
:10399000C3F101031C9359E6F4077FF54FAAFFF723
:1039A00049BAC3F101031A4422EAE273079203936E
:1039B00067272DE5254A0A92FFF762BB0890FBE5D1
:1039C000224B0A93FFF7D1BB049A06F0010656EA90
:1039D000020304D1012303936627079318E5129B82
:1039E00001331A4422EAE2730792039366270FE534
:1039F0000DF17A0259E7099B9BF80170934653F841
:103A0000042B099342EAE2720492FEF7CEBA0F4AFF
:103A10000A92B1E500230C930F9369E702231693F2
:103A2000FFF701BA049CC2E6084A0A92F7E61AEECA
:103A3000102A938943F040039381FEF798BB00BF9F
:103A4000907F0008887F00088C7F0008D47F0008E2
:103A500070B50C468989ADF58E6D21F00201ADF887
:103A60001410616E1B91E189ADF81610E16909919E
:103A7000616A0B911CA9029106914FF48061064680
:103A80000491079118A80021CDE90032089101F0B6
:103A900037FDDDE9003202A93046FEF711FA051EB6
:103AA00007DB02A9304601F059F9002818BF4FF092
:103AB000FF35BDF814305B0603D5A38943F04003FE
:103AC000A381189801F01EFD28460DF58E6D70BD7E
:103AD00038B5334B1B6805460C460BB19A6B12B3D5
:103AE000B4F90C3018079AB225D5216900292DD0D8
:103AF00012F0010007D00020A06060694042A06180
:103B000039B1002038BD950758BF6069A060002911
:103B1000F7D1120658BF0846F4D543F04003A381FD
:103B20004FF0FF3038BD184601F04CF9B4F90C30B5
:103B300018079AB2D9D4D1062AD5520714D42169CC
:103B400043F00803A3819AB20029D1D102F4207076
:103B5000B0F5007FCCD02146284601F0D9FCB4F95D
:103B60000C3021699AB2C3E7216B51B104F14002D4
:103B7000914204D0284601F01DFAB4F90C3000221D
:103B8000226321690022C4E9001223F02403D7E74D
:103B9000092243F040032A604FF0FF30A38138BD73
:103BA00024000020024B13B1024800F005B8704712
:103BB00000000000E94E0008002301461A4618469E
:103BC00003F086BE2DE9F04F03690C69A34283B070
:103BD000C0F28780013C01F11405A30000F1140834
:103BE000009355F8243058F82420013381469A4236
:103BF00008EB840005EB84070190B2FBF3F63BD39E
:103C00000023AE4640469B465EF804AB02681FFAAE
:103C10008AFC06FB0C334FEA134C4FEA1A4A06FBA8
:103C20000ACA1FFA83FCABEB0C0C1FFA8AF31CFACE
:103C300082FCC3EB124202EB2C421FFA8CFC4CEAD2
:103C40000243774540F8043B4FEA224B4FEA1A43C0
:103C5000DAD2009B58F8033073B9019B043B9845B6
:103C600004D307E0984504F1FF3403D253F8042944
:103C7000002AF7D0C9F81040484602F0B1FA0028EF
:103C80002BDB01364046002355F8041BD0F800C05A
:103C90008AB29A1A0B0C12FA8CF2C3EB1C4303EB98
:103CA000224392B242EA0342AF4240F8042B4FEA69
:103CB0002343E9D258F8242008EB84036AB9043B73
:103CC000984504D307E0984504F1FF3403D253F834
:103CD0000429002AF7D0C9F81040304603B0BDE8E7
:103CE000F08F002003B0BDE8F08F00BF000000009F
:103CF0002DE9F04F2DED068B95B08DED020B019166
:103D0000016C249D099259EC108B0446069341B135
:103D1000426C4A60012393408B6001F0FFFF002357
:103D20002364B9F1000AB4BF012300232B607C4B4C
:103D3000BCBF2AF0004ACDF80CA033EA0A0300F019
:103D4000B2809DED027B002251EC170BB0EE479A3A
:103D5000F0EE679A0023FCF7D1FF074680B1069A80
:103D600001231360259B002B00F0DB826D48186057
:103D7000431E0093009815B0BDEC068BBDE8F08F94
:103D800012AA13A92046B0EE490AF0EE690A02F021
:103D9000EFFAB0EE498AF0EE698A5FEA1A560546F4
:103DA00040F09980DDE912763E4406F23240202848
:103DB00040F3AB83C0F140000AFA00FA06F2124069
:103DC00028FA00F04AEA0000FCF7B6FC0123013EA5
:103DD0000D93A1F1F871544B0022FCF76FFB4AA33D
:103DE000D3E90023FCF722FD49A3D3E90023FCF724
:103DF00067FB804630468946FCF7AEFC46A3D3E914
:103E00000023FCF713FD02460B4640464946FCF7EB
:103E100057FB80468946FCF7B9FF00228346002302
:103E200040464946FCF774FF002840F06D82BBF124
:103E3000160F00F25C823D4B03EBCB03D3E900236A
:103E400051EC190BFCF764FF002875D00023BE1B52
:103E50000C93731E0BF1FF3B049300F14F82002380
:103E60000893BBF1000F6EDA089BCDF814B0A3EBFA
:103E70000B030893CBF100030B93019B092B4FF02D
:103E8000000B69D8052B40F33E83043B01930026C9
:103E9000019B023B032B00F29986DFE813F04E04EE
:103EA0004B0443042604069A42F20F73CAF3130A22
:103EB00013605AEA08031DD1259B002B00F07D8674
:103EC0001B4B00930833259A0098136015B0BDEC86
:103ED000068BBDE8F08F18EE903AC3F3130351EC54
:103EE000190B43F07F510D97A6F2FF36129F41F454
:103EF000401170E7259B002B40F0DB830D4B0093B6
:103F000038E700BFAFF3008061436F63A787D23FFC
:103F1000B3C8608B288AC63FFB799F501344D33FB8
:103F20000000F07FC17F00080000F83F30810008EA
:103F3000E87F0008E47F0008BE1B731E049300F1B5
:103F40009A840C900890049B5B44CDE9043B0023C9
:103F50000B93019B092B95D9002301264FF0FF32CB
:103F600001930A9607920993079B0F9300216164BE
:103F7000204601F0ADFE0090002800F02F86009B47
:103F80002364079B0E2B00F2F980002E00F0F680D0
:103F90000599002940F37184BD4B01F00F0203EB3A
:103FA000C2034FEA2118C905D3E9006740F1038431
:103FB000B84B51EC190BD3E90823FCF761FD41EC38
:103FC000180B08F00F084FF0030AB8F1000F13D0D8
:103FD000DFF8C09218F0010F09D030463946D9E910
:103FE0000023FCF723FC0AF1010A06460F465FEAAC
:103FF000680809F10809EDD151EC180B32463B462F
:10400000FCF73EFD41EC1A0B0C9B5BB157EC1A6BB5
:10401000A14B1AEE100A00223946FCF779FE00285F
:1040200040F052855046FCF797FB53EC1A2BFCF7F7
:10403000FDFB9A4B0022FCF743FA079B8046A1F157
:104040005079002B00F0F383059B1093079B0E9390
:104050000A9B002B00F0C0840E9A8D4B9049DDF82E
:1040600000A003EBC20353E902230020FCF708FD84
:1040700042464B46FCF722FA59EC1A8B41EC180BDE
:1040800049461AEE100AFCF781FE0746FCF764FB6E
:1040900002460B461AEE100A4946FCF70FFA303773
:1040A0000AF8017B53EC182B06460F46FCF730FE4E
:1040B000002840F055854FF000080AEE105ACDF860
:1040C00044B055465BEC18AB08EE104A44462AE073
:1040D0000E9B01349C424BDA724B504659460022EB
:1040E000FCF7A4FB6F4B002282468B4630463946D4
:1040F000FCF79CFB89468046FCF748FE0746FCF728
:104100002BFB02460B4640464946FCF7D7F93037B1
:1041100005F8017B52465B4606460F46FCF7F8FD64
:10412000002840F0188532463B465B490020FCF7EA
:10413000C5F952465B46FCF7EBFD0028C8D0109B42
:10414000009A0593AA4618EE104A1AEE105A02E099
:10415000924500F0EA84D1461AF8013D392BF7D098
:104160000133DBB28AF80030059B01330593ABE1E4
:10417000DDF844B01AEE105A18EE104A139B002BCB
:10418000C0F29480059A0E2A00F39080404B03EB16
:10419000C203D3E90089099B002B1BDA079B002B84
:1041A00018DC40F05D83404B002240464946FCF756
:1041B0003DFB02460B4651EC190BFCF7B3FDDDF855
:1041C0001CA05646002800F0D082099BDDF8008034
:1041D000DF43D2E242464B4651EC190BFCF750FC50
:1041E000FCF7D4FD06468346FCF7B6FA42464B463A
:1041F000FCF71CFB0B46024651EC190BFCF75EF971
:10420000DDF800A0334630330AF8013B079B012B51
:1042100000F08E834FF0010B08EE105A08EE904A22
:104220001D465446DA461DE042464B463046394666
:10423000FCF726FCFCF7AAFD8346FCF78DFA424604
:104240004B46FCF7F3FA0AF1010A0B4602463946DF
:104250003046FCF733F90BF13003AA4504F8013B73
:1042600000F061830F4B0022FCF7E0FA00220023EC
:1042700006460F46FCF742FD0028D5D0A24618EEB0
:10428000105A18EE904A059B01330593D1461BE165
:1042900030810008088100080000F03F00001C4049
:1042A0000000E03F00002440000014400A9A002A69
:1042B0003FD0019A012A40F39C82079B03F1FF380B
:1042C0000B9B4345C0F26E82A3EB0808079B002BB3
:1042D000C0F26683049A1A440492089A17461A4454
:1042E00008920121204601F0C7FD064625E0012382
:1042F000BE1B0C93731E04937FF5B1ADC6F1010391
:10430000089300230493ACE55846FCF725FA42468F
:104310004B46FCF7F3FC00287FF489AD0BF1FF3B23
:1043200085E5874B0093009815B0BDEC068BBDE882
:10433000F08FDDF82C80089F0A9E002F0CDD049A78
:10434000002A09DD0899BA421346A8BF3B46C91A9C
:10435000FF1AD31A089104930B9BDBB10A9B002B25
:1043600000F08282B8F1000F0FDD31464246204650
:1043700001F05EFE2A4601460646204601F0AAFDEF
:1043800029460546204601F0C9FC0B9BB3EB080209
:1043900040F000830121204601F06EFDBBF1000FCB
:1043A000824600F3B780019B012B40F386814FF0DA
:1043B00000080120BBF1000F40F0B880049A1044BF
:1043C00010F01F0000F09680C0F12003042B40F392
:1043D000F883089BC0F11C0003440244089307447F
:1043E0000492089B002B05DD29461A46204601F061
:1043F0007FFE0546049B002B05DD51461A462046EC
:1044000001F076FE82460C9B002B40F03781079B23
:10441000002B40F31E810A9B002B40F0A180059BDE
:1044200001330593DDF80080DDF81C90012707E0DB
:10443000294600230A22204601F07AFC013705466E
:1044400051462846FFF7BEFB4F4500F1300008F803
:10445000010BEDDB079A002AC8BF9346009AD8BF2C
:104460004FF0010B034693440027294601222046C2
:10447000019301F03DFE5146054601F0B1FE0028D2
:1044800040F3A5811BF8013C009A0BF1FF3B04E0CF
:104490005A4500F0A7811BF8013D392B0BF10109AA
:1044A000F6D001338BF800305146204601F036FC3F
:1044B00056B12FB1B74203D03946204601F02EFC49
:1044C0003146204601F02AFC2946204601F026FC10
:1044D000002389F80030DDE905231A60259B002BB5
:1044E0003FF448AC0098C3F8009015B0BDEC068BC3
:1044F000BDE8F08F1C20089B03440893049B0344F1
:10450000074404936DE70126C2E4C0F1200008FAD5
:1045100000F059E401465A46204601F089FD019B0E
:10452000012B824640F3D5814FF00008DAF81030B5
:104530000AEB8303186901F04FFCC0F120003DE74E
:10454000C07F0008314600230A22204601F0F0FB1C
:104550000F9B002B064640F32383CDF8149007935E
:10456000002F00F31881B8F1000F40F0FC81B04635
:10457000029B009F079903F001027B1E1944019BD7
:104580000A9213430891099351462846FFF71AFBF4
:1045900031468346284601F023FE42465146814675
:1045A000204601F03FFEC26801460BF13003002AAD
:1045B00042D104902846079301F012FE049902901C
:1045C000204601F0ABFB029A079B1AB90999002912
:1045D00000F0D682B9F1000FC0F28781019949EA53
:1045E00001090A9951EA090100F07F81002A00F3CC
:1045F000E781089A3B7007F101099742CB4600F02A
:10460000E581294600230A22204601F091FB464518
:10461000054631464FF000034FF00A02204612D003
:1046200001F086FB4146064600230A22204601F09F
:104630007FFB4F468046A7E72046029301F06EFBC2
:10464000029B0122C6E701F073FB4F4606468046F7
:104650009AE7019B022B77DC0A9B002B80D1059BFC
:104660005146013328460593FFF7ACFADDF800B058
:1046700000F130030BF8013B0027F6E651462846CF
:1046800001F0AEFD0028BFF6C2AE294600230A2283
:10469000204601F04DFB059B03F1FF390A9B0546BF
:1046A000002B7FF44FAF0F9B002B40F370820793DA
:1046B000B8E6BD4B0093033305E4DDE9021200299F
:1046C0007FF475AEC2F31303002B7FF470AEB74BCB
:1046D0001340002B00F03D82089B01330893049B9C
:1046E000013304934FF0010863E601230A93099B09
:1046F000059A13440F930133012B1F460793B8BF4C
:1047000001270021172F61647FF732AC01220423B7
:104710005B0003F11400B842114602F10102F7D91F
:10472000616425E401230A93099F002F4ADD0F9756
:104730000797E6E700230A93D9E700230A93F3E7F4
:104740000F9BCDF814900793079B002B7FF43DAD92
:1047500051460522204601F0EBFA014682462846E2
:1047600001F03EFD00287FF730AD0098059F312312
:10477000804600F8013B013700905146204601F089
:10478000CDFA7B1CDDF800900593CDF80080002E5B
:104790007FF496AE98E631463A46204601F0A8FCF2
:1047A0000646E0E60B9BCDF82C80A8EB03039B4468
:1047B0004FF000088AE54FF0020AB0EE498AF0EEA9
:1047C000698A02E4012309930793FFF7CDBB03D164
:1047D000019BDB073FF556AED9461BF8013D302B58
:1047E000FAD061E6059B009A0133059331231370DB
:1047F0005AE60D9A002A00F0638103F23343049ACB
:10480000DDF82C801A440492089A17461A4408923C
:1048100067E55046FBF7A0FF53EC1A2BFCF706F8B0
:10482000634B0022FBF74CFE8046A1F15079614BAF
:10483000002251EC1A0BFBF741FE42464B4606465E
:104840000F46FCF783FA002840F07F813046394656
:10485000424609F10043FCF75BFA00283FF48EACB6
:104860004FF0000A5646B0E429460B9A204601F064
:10487000DFFB05468EE50C9040E500F04E81059A81
:104880004D4B564206F00F0203EBC203D3E900235F
:1048900051EC190BFBF7CAFF361141EC1A0B00F073
:1048A0008881464F00234FF0020AF20706D5D7E968
:1048B0000023FBF7BBFF0AF1010A0123761007F181
:1048C0000807F2D1002B3FF49FAB41EC1A0BFFF726
:1048D0009BBB029B002B7FF427AEDDE90212C2F3E3
:1048E0001303002B3FF4F3AE1EE6002A12DD294627
:1048F00001222046019301F0FBFB5146054601F0E1
:104900006FFC0028019B40F33581392B00F01381A7
:104910000BF13103B94609F8013B059B01333746DA
:1049200005934646C0E5A24618EE105A18EE904A86
:1049300002460B46FBF7C4FD42464B4606460F4671
:10494000FCF704FA60B942464B4630463946FCF75C
:10495000D5F900283FF497AC5FEACB717FF593ACB3
:10496000009AFFF7F8BB7168204601F0B1F90746DD
:10497000002800F03A81336902339A0006F10C01F5
:104980000C30FBF7FDFC39460122204601F0B0FB5C
:104990008046EDE52946204601F04AFB0546F9E44C
:1049A000DDE907239F1A9CE4E47F00080000F07F04
:1049B00000001C40000014403081000808810008FD
:1049C000392B00F0B880B9460133A4E7059A0132CB
:1049D00037460592464648E50E988D4901EBC001E1
:1049E00042464B4651E90201FBF720FF5AEC1A9B65
:1049F00041EC180B51461AEE100AFCF7C7F90746AE
:104A0000FBF7AAFE02460B461AEE100A5146FBF7C8
:104A100055FD06460E98DDF800803037012808F86D
:104A2000017B0F4600F0BA800E9B009ACDF838B09B
:104A300013449B46C246774B002230463946FBF76B
:104A4000F5FE89468046FCF7A1F90746FBF784FE90
:104A5000303702460B4640464946FBF72FFD0AF821
:104A6000017BDA4506460F46E5D1DA46DDF838B077
:104A7000694B59EC188B002218EE100A4946FBF7D7
:104A80001FFD32463B46FCF743F900286DD118EE76
:104A9000102A4B4660490020FBF710FD32463B468A
:104AA000FCF754F900283FF469ABD1460AF1FF3A0C
:104AB00019F8013C302BF8D0109B0133059303E526
:104AC000129BC3F136039AE6079B002B3FF4A1AE7D
:104AD0000F9B002B7FF752AB059A0E93013A4D4B7B
:104AE00010921AEE100A39460022FBF79FFE02468A
:104AF00016460F460AF10100FBF72EFE32463B46F2
:104B0000FBF794FE454B0022FBF7DAFC47EC1A6BEF
:104B10008046A1F15079FFF79BBA4FF0020AB0EE40
:104B200049AAF0EE69AAFFF76FBA059B0133059316
:104B30003123FFF717BB059BBB4601330593392390
:104B400037460BF8013B46469EE44FF0000A5646B6
:104B50000BE698462DE4AA4618EE104A1AEE105AB3
:104B6000109B01330593D146AEE4109B009A059348
:104B7000FFF7F1BA7FF4CEAEDA077FF5CBAEC4E62D
:104B8000392BD8D0B9F1000F3FF7C2AEC2E6019B76
:104B9000022B3FF7D5ADCDF8149060E5C24667E72C
:104BA000019B022B3FF7CCAD0F9BCDF814900793E0
:104BB000D6E44FF0020AFFF727BA194B0093FFF72C
:104BC000D9B83FF40EACC0F13C0094E40026666412
:104BD0003146204601F07CF8009068B9114B12482C
:104BE00000224FF4D57102F0B9FE0E4B0E483A4642
:104BF00040F2EA2102F0B2FE009B236401224FF052
:104C0000FF3309960F930A920793FFF7B7BA00BFD5
:104C100030810008000024400000E03F00001C40FC
:104C2000E87F0008F47F000808800008B1F90C2034
:104C30002DE9F0410C461107804647D4636842F4E1
:104C40000062002BA2815EDDA56A002D58D00023F2
:104C5000D8F80060C8F8003093B212F4805256D1F0
:104C60000123E1694046A847431C67D0A389A56A90
:104C70005F0705D56368C01A236B0BB1E36BC01ADD
:104C8000E169024600234046A847411C41D1D8F8BB
:104C90000030002B3DD01D2B01D0162B56D1A389FF
:104CA0002269226023F4006300216160A381216BEB
:104CB000C8F8006021B304F14003994202D0404695
:104CC00000F078F900202063BDE8F0812669BEB1CC
:104CD00093B2256826609A070CBF63690023AD1B59
:104CE000A3600BE02B463246E169676A4046B8474D
:104CF000B0F1000CA5EB0C05664417DD002DF1DCCE
:104D00000020BDE8F081E36B002B9DDCF8E7206D0F
:104D1000AEE7B4F90C302269226023F40063A3816A
:104D20000022DB046260C2D52065C0E7A38943F09E
:104D300040034FF0FF30A381BDE8F081D8F8003088
:104D4000002B93D01D2B06D0162B04D0A38943F043
:104D50004003A381D5E7C8F80060D1E738B50C4619
:104D6000054608B1836BA3B1B4F90C00B8B1636E0A
:104D7000DB0701D4810515D528462146FFF756FFEC
:104D8000636EDA07054602D4A3899B050ED5284633
:104D900038BD00F017F8B4F90C000028E7D105463B
:104DA000284638BDA06D00F0AFFBE5E7A06D00F030
:104DB000ADFB284638BD00BF014900F079BB00BFFC
:104DC000397A00082DE9F0478246394800F09CFB0B
:104DD000DAF83840002C66D1DAF80450354ACAF8BF
:104DE0003C200323CAE9B843DFF8DC90DFF8DC801D
:104DF000314F324E04230AF53B72CAF8E8222146AD
:104E0000C5E90243C5E90044C5E904446C660822CB
:104E1000AC6105F15C00FCF7BDFEC5E90759C5E9C9
:104E20000987EE6205F1580000F06AFBDAF80850D5
:104E3000234BEB602146C5E90044C5E904446C6698
:104E4000AC60AC61082205F15C00FCF7A3FEC5E98B
:104E50000759C5E90987EE6205F1580000F050FBDB
:104E6000DAF80C50174BEB602146C5E90044C5E960
:104E700004446C66AC60AC61082205F15C00FCF790
:104E800089FE05F15800C5E90759C5E90A76C5F854
:104E9000248000F035FB0123CAF838300448BDE80F
:104EA000F04700F033BBBDE8F047014800F02EBBEF
:104EB000080A0020B94D00080D6900082D69000896
:104EC0000900010012000200A9680008CD6800086E
:104ED000014800F019BB00BF040A0020014800F09F
:104EE00015BB00BF040A002038B5084B084D5B1BFA
:104EF0009C1007D0043B1D44013C55F804399847E9
:104F0000002CF9D1BDE8384002F0E0BF8C830008E6
:104F100088830008F8B5244F0C46064600F0CCFE06
:104F2000BA685568C4F57E630F3325F003052B443A
:104F300023F47F6323F00F03A3F58054B4F5805F5F
:104F400007DB0021304601F09DFCBB682B449842F2
:104F500004D0304600F0B6FE0020F8BD6142304675
:104F600001F090FC01300DD0104ABB682D1B45F0BC
:104F700001055D60136830461B1B136000F0A2FE44
:104F80000120F8BD0021304601F07CFCBA68831A8C
:104F90000F2BDEDD43F001035360054B03491B6813
:104FA000C01A0860D5E700BF540400200C0A002096
:104FB0005C080020002961D0F8B50C46064600F0D8
:104FC0007BFE54F8042C7B4FA4F1080522F001016C
:104FD00005EB010CB868DCF80430604523F00303EE
:104FE00000F08B80D207CCF8043032D454F8082C6F
:104FF000AD1A1144AA6807F1080082426AD00CEB8E
:105000000304D4F804E0EC68D4601EF0010FA26041
:1050100000F0978041F001036B60CCF80010B1F50F
:10502000007F35D27A68CB084809012101338140DD
:105030001143796007EBC30257F83310083AC5E90A
:10504000021247F83350CD603046BDE8F84000F01A
:1050500039BE0CEB03025268D00710D4194407F193
:105060000800DCF80830834273D0DCF80C20DA60EA
:10507000936041F001036B606950D0E7704741F0E5
:105080000103B1F5007F44F8043CCCF80010C9D30B
:10509000B1F5206F4FEA512348D28B0903F1390053
:1050A00003F13802C300F818FB580838984259D069
:1050B0005A6822F003028A4202D99B689842F7D1CB
:1050C000D868C5E902308560DD603046BDE8F8404B
:1050D00000F0F8BD0CEB03025268D20763D40B4416
:1050E000DCE90212CA60916043F001026A60304656
:1050F000EB50BDE8F84000F0E5BD0B44D10707D404
:1051000054F8082CAD1A1344D5E90212CA60916014
:1051100043F001026A60284ABD6012689A4293D83F
:10512000264B30461968FFF7F5FE8DE7142B0AD998
:10513000542B1FD80B0B03F16F0003F16E02C30059
:10514000B1E719448DE703F15C0003F15B02C30092
:10515000A9E741F00103C7E90455C5E902006B6006
:10516000695071E779689210012404FA02F20A4347
:105170007A60A6E7B3F5AA7F06D8CB0B03F17800D7
:1051800003F17702C3008EE740F25452934206D8EF
:105190008B0C03F17D0003F17C02C30083E74FF425
:1051A0007E737E227FE741F001036B60CCF8001034
:1051B0004AE700BF54040020600800203C0A002099
:1051C0009368002B00F085802DE9F04FB1F90C3089
:1051D0000C461907804683B0174698B225D5236937
:1051E0001BB310F002033D682DD04FF0000ADFF82A
:1051F000BCB25646B9465E453346524628BF5B466A
:105200004046002E52D0E169676AB847002856DD53
:10521000D9F808301B1A8244361AC9F80830002B16
:10522000E9D1002003B0BDE8F08F21464046FEF7EB
:105230004FFC002840F03681B4F90C303D6898B23C
:1052400010F00203D1D110F0010944D14E4600976D
:1052500046B38205D4F808B040F18380B3455A467E
:1052600000F2B28010F4906F40F0BF80206801928D
:10527000494600F0A5FCA368019AA3EB0B01236843
:10528000A1601344B24623600026009B9868A0EBFF
:105290000A00D14498600028C3D0B4F90C0080B251
:1052A000002ED6D1D5E900960835D1E7D5E900A67C
:1052B0000835A0E721464046FFF750FD80B3B4F91A
:1052C0000C3043F040034FF0FF30A38103B0BDE842
:1052D000F08F002070471E46AA46994618461D4684
:1052E000009756B388B34A46D4E904132068B24203
:1052F00028BF3246884205D9A16803EB010B5A4505
:1053000000F3A680934263DCE169676A2A4640465F
:10531000B847B0F1000BD2DDB9EB0B09CAD00120C0
:10532000009A9368A3EB0B035D44A6EB0B06936016
:10533000002B3FF476AF002ED4D10AF1080353E9D5
:1053400002569A460833002EF9D032460A212846E2
:10535000FAF7C6FF002800F09C800130A0EB050999
:10536000C1E720682369984216D86369B34213D80D
:105370006FF00042B24228BF3246E16992FBF3F27D
:10538000676A02FB03F340464A46B847B0F1000A99
:1053900095DDA6EB0A0678E7B345DA4628BFB246A4
:1053A0005246494600F00CFCA3682268A3EB0A03AE
:1053B0005244A3602260002BEBD121464046FFF708
:1053C000CDFC0028E5D07AE72068B34632464EE7A8
:1053D0002946019200F0F4FB019AA3689B1AA3608E
:1053E000236813442360934696E723682169A3EB5F
:1053F000010B636903EB430A0AEBDA7A0BF1010351
:105400004FEA6A0A33445345524684BF9A4652468D
:1054100043052CD51146404600F022F900283BD028
:105420005A4621690190FAF7ABFFA289019B22F449
:10543000906242F08002A28103EB0B002361AAEB91
:105440000B03C4F814A0A3602060B34632460EE7F5
:1054500029465A4600F0B4FB23685B44236021468A
:105460004046FFF77BFC00283FF456AF27E7404655
:1054700000F0E6FF03460028DED121694046FFF731
:1054800099FDB4F90C300C2223F08003C8F80020F9
:1054900017E7721C914627E70C22B4F90C30C8F8C4
:1054A00000200EE74FF0FF30BCE600BF00FCFF7F9E
:1054B0002DE9F8430746884600F538764FF0000995
:1054C000D6E90154013D11D4A389012B05F1FF3523
:1054D00008D9B4F90E300133214603D03846C0470D
:1054E00049EA00096B1C04F16804EDD13668002E0E
:1054F000E6D14846BDE8F8830048704754090020CB
:10550000704700BF704700BF704700BF704700BFC3
:105510002DE9F0418B890C46990796B008D504F126
:1055200043030122C4E90432236016B0BDE8F081D0
:10553000B4F90E100029064627DB6A4602F07EFB0E
:10554000002821DB019D05F47045A5F50055B5FA4D
:1055500085F54FF480686D094FF400674146304689
:1055600000F07EF8B4F90C30F0B1204AF26343F059
:105570008003C4F81480A3812060206135BB3B43C5
:10558000A38116B0BDE8F081A38913F0800519D07E
:105590004FF040084146304600F062F80025B4F96B
:1055A0000C302F460028E0D19A05BED423F0030327
:1055B00004F1430243F002030121C4E90421A38161
:1055C0002260B2E74FF480682F46C7E7B4F90E10A7
:1055D000304602F049FB10B9B4F90C30CFE7A3898B
:1055E00023F0030343F001031BB2C8E7B94D0008E1
:1055F00070B50C46B1F90E10002996B015461E463E
:1056000014DB6A4602F01AFB00280FDB019A02F451
:105610007042A2F50052B2FA82F24FF4806352094E
:105620004FF4006032602B6016B070BDB4F90C10FE
:10563000002311F08000336004D0402218462A6015
:1056400016B070BD4FF480632B6016B070BD00BF04
:10565000024B0146186800F003B800BF2400002088
:105660002DE9F04F01F10B06162E83B0044624D825
:10567000102900F2BA8000F01FFB10261822022029
:10568000B54F3A44A2F1080153688B4200F0BA804A
:105690005A68D96822F003021A449D68E9608D6057
:1056A000516841F001012046516003F1080500F006
:1056B00009FB284603B0BDE8F08F36F0070600F17D
:1056C0009480B14200F2918000F0F6FAB6F5FC7FCA
:1056D000C0F09A81730A00F08F80042B00F26F8172
:1056E000B30903F1390003F1380CC3009A4F3B446E
:1056F000A3F108055B689D4206D10CE0002980F209
:105700002781DB689D4206D05A6822F00302911B74
:105710000F29F3DD60463D69DFF850C265457CD056
:105720006A6822F00302931B0F2B00F37B81002B8E
:10573000C7E904CC80F26C81B2F5007F80F01A8159
:10574000D308796801334FEA521E012202FA0EF2A1
:105750000A4357F833E0C5F808E007EBC3010839FE
:10576000E9607A6047F83350CEF80C50831001217D
:105770009940914257D8114206D120F003004900C8
:10578000114200F10400FAD007EBC0094D468646ED
:10579000D5F80C80454508D11DE1002B80F224810D
:1057A000D8F80C80454500F01681D8F8042022F086
:1057B0000302931B0F2BF0DD2046D8E9025408EBBF
:1057C000060146F00106C8F80460EC60A56043F0ED
:1057D0000104C7E90411C1E902CC4C6048F8023069
:1057E00000F070FA08F1080502E00C2323600025A0
:1057F000284603B0BDE8F08F4FF4007340204FF00F
:105800003F0C73E7D3689A4208BF02307FF440AF81
:105810003D69DFF858C1654582D17A68831001215E
:1058200099409142A7D9BD686B6823F003094E45A2
:1058300003D8A9EB06030F2B7ADCDFF834B1474B12
:10584000DBF800201B680132334405EB090A00F045
:10585000338103F580530F3323F47F6828F00F085A
:105860004146204601F00EF8411C024600F0F3804C
:10587000824500F2EE803A4B1968414419600846AF
:1058800000F04E81DBF80010019301311BBFA2EB49
:105890000A0A5044CBF80020186012F0070B00F001
:1058A0001781CBF108010A44CBF5805190440831AF
:1058B000A1EB0801C1F30B0A51462046009200F00B
:1058C000E1FF421CDDE9002300F04F81801A00EB6C
:1058D0000A081968BA6048F001005144BD4250609E
:1058E000196000F02981B9F10F0F40F22781686833
:1058F000A9F10C0C2CF0070C00F0010040EA0C00A0
:1059000068604FF0050E05EB0C00BCF10F0FC0E90D
:1059100001EE00F2328150681546124B1A688A4235
:1059200038BF1960104B1A688A4238BF196094E07A
:10593000AA1943F0010346F001066E602046BA60E2
:10594000536000F0BFF90835284603B0BDE8F08F7A
:10595000D9681A44A1E600BF540400203C0A002084
:105960000C0A0020340A0020380A00205C040020C1
:105970005C080020B2F5206F4FEA522363D3142B4A
:1059800000F2B78003F15C01C9005B3307EB010E45
:105990007958AEF1080E8E4500F091804B6823F0E7
:1059A0000303934202D989688E45F7D1D1F80CE000
:1059B0007A68C5E9021ECEF80850CD60D6E6142BF1
:1059C00059D9542B00F29D80330B03F16F0003F182
:1059D0006E0CC3008AE60EF1010E1EF0030F05F1F6
:1059E00008057FF4D5AE51E0424445465368D8F8E7
:1059F0000C1043F00103536055F8083F2046D9606E
:105A00008B6000F05FF9F3E6F00806F1080237E674
:105A10002A442046536843F001035360083500F0E0
:105A200051F9E5E6A919204646F0010643F00104C4
:105A30006E60C7E90411C1E902CC4C60AB5000F0C4
:105A400041F90835D4E6930903F13901C900383327
:105A50009CE7BD425FD0BD68686820F003084645FA
:105A6000A8EB060302D80F2B3FF762AF204600F0E9
:105A700029F90025BCE603F15C0003F15B0CC300CF
:105A800034E659F808394B4540F0968010F0030F82
:105A900000F1FF30F5D17B6823EA01037B60490008
:105AA00099423FF6C0AE19B9BDE649000EF1040EA9
:105AB0001942FAD0704667E603F11008D0E69A1052
:105AC0004FF001087B6808FA02F21A437A6070E727
:105AD00002EB08014942C1F30B0A514620460092ED
:105AE00000F0D0FE431CDDE900237FF4EFAEDA4680
:105AF000EFE6542B25D8130B03F16F01C9006E3369
:105B000044E7B3F5AA7F25D8F30B03F1780003F13E
